:0200000460009A
:100000004643464200000156000000000103030081
:1000100000000000000000000000000000000000E0
:1000200000000000000000000000000000000000D0
:1000300000000000000000000000000000000000C0
:1000400000000000010408000000000000000000A3
:100050000000800000000000000000000000000020
:100060000000000000000000000000000000000090
:100070000000000000000000000000000000000080
:10008000EB04180A063204260000000000000000FD
:10009000050404240000000000000000000000002F
:1000A0000000000000000000000000000000000050
:1000B0000604000000000000000000000000000036
:1000C0000000000000000000000000000000000030
:1000D00020041808000000000000000000000000DC
:1000E0000000000000000000000000000000000010
:1000F0000000000000000000000000000000000000
:10010000D8041808000000000000000000000000F3
:100110000204180804200000000000000000000095
:1001200000000000000000000000000000000000CF
:10013000600400000000000000000000000000005B
:1001400000000000000000000000000000000000AF
:10015000000000000000000000000000000000009F
:10016000000000000000000000000000000000008F
:10017000000000000000000000000000000000007F
:10018000000000000000000000000000000000006F
:10019000000000000000000000000000000000005F
:1001A000000000000000000000000000000000004F
:1001B000000000000000000000000000000000003F
:1001C000000100000010000001000000000000001D
:1001D000000001000000000000000000000000001E
:1001E000000000000000000000000000000000000F
:1001F00000000000000000000000000000000000FF
:10020000FFFFFFFFFFFFFFFFFFFFFFFFFFFFFFFFFE
:10021000FFFFFFFFFFFFFFFFFFFFFFFFFFFFFFFFEE
:10100000D10020432914006000000000000000000F
:10101000201000600010006000AC046000000000C0
:101020000000006000B8040000000000FFFFFFFFA8
:10103000FFFFFFFFFFFFFFFFFFFFFFFFFFFFFFFFC0
:10104000FFFFFFFFFFFFFFFFFFFFFFFFFFFFFFFFB0
:10105000FFFFFFFFFFFFFFFFFFFFFFFFFFFFFFFFA0
:10106000FFFFFFFFFFFFFFFFFFFFFFFFFFFFFFFF90
:10140000884207D0904205D251F8043B40F8043B93
:101410008242F9D8704700BF884204D2002340F8C6
:10142000043B8142FBD87047664B4FF42A01664A61
:1014300066482DE9F0475A641864654A99639546F1
:10144000BFF34F8FBFF36F8F00F004F9614B08209B
:10145000614A6249C3F854016148FFF7D1FF614A0C
:1014600061496248FFF7CCFF61496248FFF7D4FF4A
:10147000614C62494FF470000023614A086044F8EF
:1014800023200133B02BFAD15E4B80215E4A03F852
:10149000011B9342FBD14F4D4FF080385B494FF019
:1014A000FF325B4B0026DFF8A4A1DFF8A4911C609B
:1014B000C5F80481C5F800A1C5F8F480C5F8F0901E
:1014C0000B68544F43F4E0230B60FB693D4923F064
:1014D0007F0343F04003FB617B6A23F07F0343F00B
:1014E00040037B628A66CA660A674A6700F0B8F8FA
:1014F000494A4A4B6320A2630321E363484A494BAC
:10150000106000F160401E6042F8041C00F6A170FB
:101510004549464AC3F8082D0B68454A43F0807395
:101520000B601368434943F00103136003680B60C9
:1015300000F0E6FAC5F804813F48C5F800A1C5F8F7
:10154000F480C5F8F09000F077FCF96E3B4A41F466
:1015500040513B4BF9661660C2F80861C2F8186149
:10156000C2F82861C2F838619A6BD20708D442F6F3
:101570001562344959651A659A6B42F001029A6303
:101580002F4A314C936843F00113936000F0DAF86E
:1015900000F016FC00F048FC00F0E4FA00F05CF803
:1015A0002368132BFCD900F06BFB2368B3F5967FFF
:1015B000FBD300F053F800F04BFC00F045FC30BFCB
:1015C000FDE700BF00C00A40FFFFAAAA07002000F5
:1015D0000000042000800D40C8FD0300601F006073
:1015E00000000000C06E0020123D046000000020DA
:1015F000C0B50020C06E0020006C002088ED00E027
:101600002D27000000E400E0A0E400E024ED00E06D
:1016100008ED00E000C00F40B53B0000B93B000002
:1016200014E000E018E000E0FCED00E00000202005
:10163000001000E0F4B400200046C323004008403E
:1016400000400D400000C056F8B400201B101820C8
:101650000C0D1113704700BF704700BF704700BFEB
:10166000F0B5244A0020244B4FF0100C234C1126D7
:10167000DFF8C8E0122720600125C2F800C0C3F8D7
:1016800000E01660DFF8B8E01D4EC3F800E01D4929
:1016900017601E6041F015011B4F1C4E17601E6045
:1016A0001B4F1C4E17601E601B4F11601B4E1C49C8
:1016B0001F6016601B4F19601B4E1C4917601E608F
:1016C0001B4F11601B4E1C491F601660196025607E
:1016D000BFF34F8FBFF36F8FC3F8B001BFF34F8FCE
:1016E000BFF36F8F52F8883C43F4403342F8883C94
:1016F000F0BD00BF9CED00E0A0ED00E094ED00E047
:1017000009001000C0B500201300200021000207CE
:1017100014000020250008130900001016002020E6
:1017200027000B131700004033001013180000604F
:101730002F000B07190000702F000B133F00001043
:1017400025000803F0B58D4B18228D4E01208D49E0
:1017500048F20C7E8C4D4FF0FF378C4C83B0C3F8B1
:101760005C12C3F860520025C3F86412C3F86842E3
:101770004FF40054C3F86C628549C3F87062C3F833
:101780007462C3F87862834EDA661A675A679A679A
:10179000DA67C3F88020C3F88420C3F8882040F2B9
:1017A0000562C1F82C03C1F83003C1F83403C1F855
:1017B0003803C1F83C03C1F850032946B3697648A1
:1017C0001840764B03437648B361D6F8843043F033
:1017D0000C03C6F8843002260368334303600368B1
:1017E00003EA0E0E6F4B4EEA0303DFF8F0E10360ED
:1017F0006D4B4760DEF808703B406C4F43F0005380
:101800008360C36823F07803C360036A1F40684B9A
:101810003B43664F0362036A1F40654B3B43654F82
:1018200043628762C762DEF8B830634F23F03F033C
:1018300043F00103C0F8B830DEF8BC30DFF884E1D3
:1018400023F03F0343F00103C0F8BC300561046698
:101850000767C0F8802044664767C0F884200468A2
:10186000564B24F00204564A0460C0F818E0C661E2
:1018700043F8041B9342FBD1494B1A68194642F0C6
:1018800001021A600B68464A13F00103FAD14D4E6B
:10189000022540F2F56440F2664040F299414A4F19
:1018A000966142F20146D56140F23545C2F80042E8
:1018B00042F20124C2F810020120C2F8201211469F
:1018C000C2F8307207F15A47C2F8346207F513774D
:1018D000C2F840523D4E3E4DC2F85072C2F85462BA
:1018E000C2F86052C2F86442C2F8A030C2F8A43014
:1018F000C2F8B0004B692A4ADD07FBD5012300245A
:101900004FF4803011465361C2F8A040C2F8A400E1
:10191000C2F8B0304B69224ADC07FBD50123002412
:101920004FF4003011465361C2F8A040C2F8A40041
:10193000C2F8B0304B691A4AD807FBD501230024FE
:10194000244811465361C2F8A040C2F8A400C2F86E
:10195000B0304B69124ADB07FBD5D2F8003145F6AF
:101960000D5121209BB250618B4239D01A4B00227D
:101970001A605A609A60DA6003B0F0BD00801F40C0
:10198000F9700100F9B00100F9100100F90001003F
:1019900000841F4000C00F40FFFCFF1F000300A099
:1019A00000402A401200FFFFFF37F70000FFF07CE5
:1019B00040000080FF000F836300020000422A40C5
:1019C00000432A40F05AF05A9F041830063201268C
:1019D0003806180A0400030064B5002000802A407D
:1019E00000244FF4802001231146C2F8A040C2F821
:1019F000A400C2F8B0304B693B4ADF07FBD5012396
:101A00004FF40004002011465361C2F8A040C2F810
:101A1000A400C2F8B0304B69334ADE07FBD501237E
:101A20004FF400044FF4803011465361C2F8A040D7
:101A3000C2F8A400C2F8B0304B692B4ADD07FBD5D1
:101A400001234FF400044FF4003011465361C2F8F3
:101A5000A040C2F8A400C2F8B0304B69224ADC07AB
:101A6000FBD501234FF40004204811465361C2F80E
:101A7000A040C2F8A400C2F8B0304B691A4AD80797
:101A8000FBD5D2F8003145F60D5121209BB25061B3
:101A90008B4210D0164B08224FF400041A701549DF
:101AA0000020154A01230090521A1448224400F0E5
:101AB000BFF903B0F0BD4FF400044FF480210123BF
:101AC0001046C2F8A040C2F8A410C2F8B030436972
:101AD0000549DB07FBD50120054B10224FF0807430
:101AE00048611A70DBE700BF00402A400400030091
:101AF0000FB50020000000700000007064B50020E9
:101B0000F0B4174A40274FF480314FF480564FF419
:101B100000554FF4404443F24200136913F0020FA2
:101B200006D0946151619061136913F0020FF8D1EE
:101B300013F4005F01D15561EFE713F4805F01D129
:101B40005661EAE7002BE8DA13F4803F01D0916197
:101B5000E3E75B0601D45761DFE7F0BC704700BFE5
:101B600000800D40394A03203949F3EE095A1368C1
:101B70009FED386A23F00103DFED376AF0B413609C
:101B800000241061D1F8E030344FD8B2C3F30B21F8
:101B90001B0D334E07EE100A05EE101A07EE903AB1
:101BA000304BB8EEC55A304DB8EEC77A3060F8EE1B
:101BB000E77A29602D4937EE466A2D4E77EEC57AD1
:101BC0002C4877EE666A2C4D37EE657A26EE276A4A
:101BD000C7ED007A66EEA76A176867EE277A83ED8D
:101BE000007AC6EE075A86EE876AC7EE876A35EE38
:101BF000857AFCEEC77A36EE057A17EE903ABCEE9F
:101C0000C77A47EA035376EE857A136017EE103AE7
:101C1000D2F81071FCEEE77A01EA0341394317EE7E
:101C2000903AC2F81011C3F30B03D2F810110B4312
:101C3000C2F81031136843F0020313603470C0F827
:101C400040510E4B0122F0BC1A60704780810D405C
:101C500000441F400000AA420000B442ECB400203F
:101C6000E4B40020E8B40020E0B400200000FF0F3E
:101C700040E400E0006C00202D29000008E100E0B5
:101C8000304B40F6617270B5C3F8202140F2044534
:101C900000F0E2F82C492D48D1F880202C4C42F07D
:101CA00003022C4BC1F88020C0F860512268134019
:101CB0001BB9D0F8A8319A071AD0244B4FF0004135
:101CC000234A51631A46D3F8401141F00201C3F888
:101CD0004011D2F840319B07FBD44FF400301E492D
:101CE0001B4B4FF00042086019209A6300F0B8F8CF
:101CF0001A4D0022164B4FF08041144C0A2699636E
:101D000028461A601146C4F8A8614FF4207200F00A
:101D100097F84FF4810640F243114FF48000104BC6
:101D2000104A2E602864C4F85851C4F84811C3F80A
:101D300004220D4A4FF4003101231160C4F84031F0
:101D400070BD00BF00800D4000C00F4000002E405D
:101D500000900D40001C1E008CE200E000000020FE
:101D6000006C0020F92A00000CE100E008B50E4BE1
:101D70001B6E9B0700D4FBBE72B60C4B00200C4AB6
:101D8000C3F8400103F160430A49A3F55F231164DE
:101D90009D46BFF34F8F084A03F5E0430749126899
:101DA000184619609368984700441F4000002E4071
:101DB00000C00A40030020001C002000000012EBBD
:101DC000114B1249D86E0A4640F4403030B4D86600
:101DD00040F23765D86EA02440F44070D8664D6458
:101DE0008C64936C1B06FCD4094B40F23760A02135
:101DF0001A4658649964936C13F08003FBD1054A2A
:101E0000137030BC704700BF00C00F4000400C4052
:101E100000800C400EB50020F8B500BFF8BC08BC2F
:101E20009E467047000000005FF800F09D3E0000F5
:101E30005FF800F0D94100005FF800F0D93B0000E6
:101E40005FF800F0AD2203005FF800F09925000074
:101E50005FF800F0891703005FF800F09932000086
:101E60005FF800F06924000045000000FD2200003A
:101E700081CE00002D5101001D650100357A010061
:081E800071F001004531020080
:101E880016035500530042002000530065007200FD
:101E9800690061006C0000001803540065006500CB
:101EA8006E00730079006400750069006E006F00B1
:101EB8000403090409024B00020100C032080B00A8
:101EC80002020201000904000001020201000524C7
:101ED800001001052401010104240206052406005E
:101EE800010705820310001009040100020A00001E
:101EF80000070503024000000705840240000000B7
:101F080009024B00020100C032080B000202020164
:101F18000009040000010202010005240010010567
:101F28002401010104240206052406000107058294
:101F38000310000509040100020A00000007050358
:101F48000200020007058402000200000A060002DF
:081F5800EF020140010001004D
:101F60000000000000000000000000000000000071
:101F70000000000000000000000000000000000061
:101F800010B5054C237833B9044B13B10448AFF3B3
:101F900000800123237010BD487000200000000065
:101FA000F4EB0300084B10B51BB108490848AFF328
:101FB00000800848036803B910BD074B002BFBD015
:101FC000BDE81040184700BF000000004C70002022
:101FD000F4EB0300C06E002000000000014801F097
:101FE00061B800BF64700020F0B51546CFB006465A
:101FF0000F460DF1380E0DF137040FCDD5F800C0A6
:102000000DF10B05AEE80F000DF14B02CEF800C04C
:1020100014F8013F944205F8013FF9D1204A03AC7E
:1020200008AB304652F82720214600F0B7F90021CE
:102030000DF11F030DF103020DF127000191029133
:1020400013F8011F834202F8011FF9D101AA394692
:102050003046154600F0C6F900210AAA01AB0191ED
:10206000029112F8011B03F8011BA342F9D101AA46
:102070003946304600F0B6F900230DF12F020DF17C
:1020800035010193029312F8013F8A4205F8013BA2
:10209000F9D101AA3946304600F0A4F94FB0F0BD9D
:1020A000C46900200A480B490268F8B50A4B571C5E
:1020B0000A4E0B4D0B4C1A611A461960002107603D
:1020C00009485E609D60DC60FFF78EFFF8BD00BFD1
:1020D00074B400200000204190B400200000A04112
:1020E0000000F04100002042647000200020704792
:1020F000034B186810B103681B681847704700BF8E
:10210000447500202DE9F04342F610135D4C91B068
:10211000DFF884E1C1501646206810AC5A4B00909D
:102120001B6A5A48C3F30123056802462344046826
:1021300005F0807513F8407C44F0A0430EFB07FEC9
:102140000360BEFBF1F0BEFBF0F7CF1B1368DC01B0
:10215000FCD5052840F2938000221446931C0132DE
:10216000B0FBF3FCBCF1190F0CFB03F3F6D84FF0F6
:102170000108BEFBF3F3CB1A002BB8BF5B42BB4296
:102180006CDB18BF4FF00008ACF10C03062B03D832
:10219000B8F1000F18BF1446BCF1050FDED8631C60
:1021A000B7F5967FB0FBF3F0A0F1050E59DCBEF158
:1021B000140F56D8364FE84607F130093868103703
:1021C00057F80C1CC44657F8082C08F1100857F8AB
:1021D000043C4F45ACE80F00F0D10EEB4E0E10ABB7
:1021E0003868022E73447968BA68B7F80CE0BF7B90
:1021F000A8E80700A8F800E088F8027013F8400C7F
:1022000013F83F1C00F0070013F83E3C4FEAC141B1
:10221000204A40F480004FEA034301F4601103F4C4
:10222000E02341EA000143EA010343F4804343EA27
:1022300004641460136814BF23F0080343F0080318
:10224000136045B9114B19681A4621F08051196085
:102250001368DB01FCD411B0BDE8F0831F461446BF
:1022600092E7002DF7D1094B19681A4621F08051E9
:1022700019601368D901FCD411B0BDE8F0830123C3
:1022800000248DE79803002000C00F4000001D408F
:102290009C03002004001D4040420F0000207047B6
:1022A0000020704708207047104A114913680868D9
:1022B0001268096802F07F02C1F303610132043140
:1022C000B2EB410F10D303F07F03C0F30360053B73
:1022D0000130A3EB4000C3B2044A106800F07F0055
:1022E0000130C01AC0B270470023F5E700001D405E
:1022F00034001D402DE9F04141F61A344FF01A0820
:1023000086B00D46044486464FF0000C6F46668842
:1023100006F00F060FCD08FB06460FC795E8030031
:1023200086F816C0182263886D4641F61A3C03F001
:102330000F0308FB0343DA75668806F00F0687E88B
:10234000030008FB06460FCDB061F1613262736293
:1023500003CDB062F16262883EF80C3092B29BB25B
:1023600083F010039A4210D06388013303F01F03F7
:102370006380A3889BB20F2B03D8A38801339BB241
:10238000A380012006B0BDE8F0813EF80C30013397
:1023900003F01F032EF80C30E6E700BF002AF0B46C
:1023A0001DDD01390120002605E0A2429F550646A9
:1023B00000F101000ADD11F8015F871B0446002DC2
:1023C000F3D0A2421D5400F10100F4DCF0B2511C24
:1023D00000241A44091A99555470F0BC7047002023
:1023E0000646F4E7F0B5064687B00F46154602F0FC
:1023F00051F8B3690446C31AB3F5FA7FF7D900213F
:102400006A1E0DF10B0308250DF1130002910097D0
:1024100001910391049105918DF80B5012F8011F61
:1024200003F8011F8342F9D1F069694603681B690B
:10243000984730B90721044803F04CFA034801F0EB
:102440005FFFB46107B0F0BD543E002084630020FC
:102450000A462DE9F04752F80B5B00AF01F1130873
:1024600000EB850605EBC513D6F824E45B000EEB04
:10247000030404F50874044412F801CF424504F83B
:1024800001CBF9D1CA7C002A56D10EF1080C0EF10D
:102490000C0291F80D906C462CF0070122F0070217
:1024A0000EF1040AADEB010DE846ADEB020DEC4672
:1024B000B9F1000F4AD1BEF1000F0EDB03F5087130
:1024C00003F21F2308F1FF328E440344864413F8BD
:1024D000011F734502F8011FF9D1DFF8DCE000EBC2
:1024E000052198F800305EF825902031013BB9F1C4
:1024F000000F09DD4246481E08EB090A12F801CF19
:10250000924500F801CFF9D1994507DD002008EB8D
:102510000302C854527813449945F8DC254B002037
:102520005EF82520C6F8240453F8250001F0ECFFDE
:10253000A546BD46BDE8F0870EF1080EC6F824E4B6
:10254000CA7C002AA1D0BD46BDE8F087BAF1000FD1
:102550000EDB03F5097103F21F230DF1FF328E44E8
:102560000344864413F8011F9E4502F8011FF9D168
:10257000DFF844E000EB05219CF800305EF8259080
:102580002031013BB9F1000F09DD6246481E0CEB1A
:10259000090A12F8018F924500F8018FF9D1994587
:1025A000BCDD00200CEB0302C8545278134499455B
:1025B000F8DCB3E7CC690020C4690020014601487B
:1025C000FFF746BF647000202DE9F84F724B1C687E
:1025D00018461A6804F0807442F0A0421A6003683A
:1025E0006D4ADD01FBD5156800236C4F964625F03A
:1025F00000556B4E184615601D463B6033601368EE
:10260000684B00F1010C684A00270344624E024403
:102610005FFA8CF01B019200DD609D605D601D60C3
:102620001560DEF8003003F07F0301339842E7D3F2
:102630005E48DFF884E15E4DCEF800700760D5F8A3
:1026400000E07346D0F820E047EA0E022B600262F9
:102650003368002943D14FF000680D46DFF83CB1E4
:102660004FF00109DFF838A1524F1BE0306800F04D
:102670007F000130B1EB900F2CBF4FF08C614FF019
:10268000806111603A6812F4803218BF4FF08042C6
:102690001A603368013503F07F03EDB20133294638
:1026A0009D422CD233683F4A03F07F033E482A44C0
:1026B000013328441201B1EB530F4FEA8003D5D305
:1026C000C2F8008033689A0054D41F2D09FA05F22D
:1026D00057D8DAF800301343CAF80030D9E743F08E
:1026E00000533360356815F0005515D0FFF7DCFD59
:1026F0003368054603F07F03013398420DD3002C65
:102700003DD1254B19681A4621F080511960136894
:10271000DB01FCD4BDE8F88F33681F4F1F4EDFF894
:10272000808011E001231F2D03FA05F31AD8D8F891
:1027300000201343C8F800303B68013503F07F03E5
:10274000EDB201339D42DAD2164B4FF000622B44BA
:102750001B011A603B689900E4D5FFF7A5FDA8426C
:10276000EAD8DFE7A5F12001012332688B4013434B
:102770003360E1E7FFF798FDA8428AD8A5E7BDE8F6
:10278000F88FA5F12003DBF8002009FA03F31343C7
:10279000CBF800307DE700BF00001D4024001D4045
:1027A00028001D4008D001042042071010001D40E1
:1027B0002C001D4034001D4048001D405E4B00228F
:1027C0005E49F0B5054683B018686A6001900B6AEF
:1027D000AA60C3F30123EA602A6102AA134413F832
:1027E000043C002B00F08D80544942F60C10242448
:1027F000534B544A42F6151E2C504FF0010CC3F8AF
:10280000D02012248B6E41F2B0004F4A022743F4CD
:1028100070334E4E8B664E4B05F80EC0C2F81C410D
:102820001946C2F80C03F764C2F82041C2F810033D
:102830001A6822F000421A601A6842F0A0421A6038
:102840000B68434ADE01FBD542481146036843F05A
:1028500008030360136843F0804313600B683C4A2D
:10286000DC02FBD41368114643F0007313600B685D
:102870009801FCD4364A1368354CD901FBD523683E
:102880000021354A284643F400332360236843F48B
:1028900080332360236843F480532360236843F428
:1028A00000532360236843F480032360236843F4C8
:1028B00000232360236823F408432360136843F450
:1028C000E0231360236843F400132360236843F07C
:1028D00080632360FFF778FE2368224623F080534D
:1028E00023601368DB01FCD442F60C1301221B4960
:1028F000EB5803F01F005B09824041F8232003B02E
:10290000F0BD0B6A164A23F47F73106843F480739A
:102910000B6200283FF468AF01F5542142F6101213
:10292000036804315B68096811F0080FA95814BFE7
:1029300002220022984757E79803002000C00F406A
:10294000006C00209101000000801F4000841F40A7
:1029500000001D4004001D4034001D4000E100E067
:1029600044750020F8B5B74D2E6816F000567FD09C
:102970001121B54802F0AEFFB44B1B689E0600F172
:102980005A831221B24802F0A5FFB24801F0B8FC08
:102990001621B14802F09EFFAA4BB04A1868116890
:1029A0001B68126803F07F03C2F303620133043231
:1029B000B3EB420FC0F0478300F07F05C1F3036122
:1029C000053D0131A5EB4105ECB29E4EA1483168B1
:1029D00001F07F010131091BC9B22029A8BF2021C4
:1029E00001F0E6FC9B4801F08BFC16219C4802F0AC
:1029F00071FF9A4A3368126803F07F03C2F30362DF
:102A000001330432B3EB420F01D2002425460023E8
:102A10000A2229468F4801F08BFC8E4801F070FC99
:102A2000884A1368126803F07F0302F07F020133C3
:102A300001321C1BE4B2944280F0CD80894B2344C8
:102A40001D012B68C3F303630E2B00F2AC81DFE89A
:102A500013F0E101CF01F301AA01B501AA013B0284
:102A6000AA01290217020502AA016902AA01990115
:102A70001A217D4802F02EFF34462B68794B2344FF
:102A80001D012B68C3F303630E2B00F29980DFE86E
:102A900013F06701550143019700290197001701C1
:102AA00097000501C700B50097000F009700A3002D
:102AB00004216E4802F00EFF002331460A226548C9
:102AC00001F036FC1D216A4802F004FF2B6810213A
:102AD0009B0240F1BB82674802F0FCFE664FAE6885
:102AE0006B682F4423F060450721644802F0F2FE32
:102AF000002310222946574801F01AFC01216048A2
:102B000002F0E8FE0A215F4802F0E4FE00231022F2
:102B1000310E504801F00CFC01215B4802F0DAFE56
:102B200000231022C6F307414A4801F001FC0121AD
:102B3000554802F0CFFE00231022C6F30721454876
:102B400001F0F6FB0121504802F0C4FE10220023E0
:102B5000F1B2404801F0ECFB4C4B01214A483B44A8
:102B60001D6802F0B7FE00231022290E394801F03B
:102B7000DFFB0121444802F0ADFE00231022C5F323
:102B80000741344801F0D4FB01213F4802F0A2FE86
:102B900000231022C5F307212E4801F0C9FB0121B3
:102BA000394802F097FE0023E9B21022294801F0CB
:102BB000BFFB0121324802F08DFE264801F0A0FB48
:102BC000204B01341B68E4B203F07F032646013337
:102BD0009C42FFF453AFF8BD0421244802F07AFE72
:102BE000314600230A221B4801F0A2FB112128488C
:102BF00002F070FE174801F083FBE1E704211B4857
:102C000002F068FE314600230A22124801F090FBD0
:102C10001121204802F05EFE0E4801F071FBCFE763
:102C20000421124802F056FE314600230A220948C8
:102C300001F07EFB0F21184802F04CFE054801F020
:102C40005FFBBDE700001D405C3E002028001D40EA
:102C5000843E002084630020983E002034001D4004
:102C6000B03E002008D00104F83F0020C83E0020FC
:102C7000883F0020A83F002080FFE2BFD03F002017
:102C800064470020D83F00206C3E00208C001D408F
:102C9000E43F0020403F0020783F0020042193487B
:102CA00002F018FE314600230A22914801F040FB51
:102CB0001221904802F00EFE8D4801F021FB7FE7C3
:102CC00004218A4802F006FE314600230A22884881
:102CD00001F02EFB1121884802F0FCFD844801F030
:102CE0000FFB6DE70421814802F0F4FD0A22314612
:102CF00000237F4801F01CFB0F21804802F0EAFD11
:102D00002B6811219A024CBF7D487E4802F0E2FDFB
:102D1000774801F0F5FA53E70421744802F0DAFD30
:102D2000314600230A22724801F002FB0E21764848
:102D300002F0D0FD6E4801F0E3FA41E704216B4850
:102D400002F0C8FD314600230A22694801F0F0FA7A
:102D50000E216E4802F0BEFD654801F0D1FA2FE762
:102D60000421624802F0B6FD314600230A22604881
:102D700001F0DEFA1221664802F0ACFD5C4801F079
:102D8000BFFA1DE70421594802F0A4FD00230A22DE
:102D90002146574801F0CCFA11215E4802F09AFD15
:102DA000534801F0ADFA5C4B01341B68E4B203F008
:102DB0007F0301339C42FFF441AEF8BD04214B4830
:102DC00002F088FD0A2200232146494801F0B0FAAA
:102DD0000F214A4802F07EFD2B6811219D024CBF55
:102DE0004748484802F076FD414801F089FADAE7A1
:102DF00004213E4802F06EFD00230A2221463C4891
:102E000001F096FA0E21414802F064FD384801F0C5
:102E100077FAC8E70421354802F05CFD00230A2256
:102E20002146334801F084FA1221394802F052FD5C
:102E30002F4801F065FAB6E704212C4802F04AFD5C
:102E400000230A2221462A4801F072FA0E212E4858
:102E500002F040FD264801F053FAA4E7042123487C
:102E600002F038FD00230A222146214801F060FAD1
:102E700011212A4802F02EFD1D4801F041FA92E787
:102E800004211A4802F026FD00230A222146184890
:102E900001F04EFA0F21224802F01CFD144801F007
:102EA0002FFA80E70421114802F014FD00230A22C2
:102EB00021460F4801F03CFA12210E4802F00AFDAB
:102EC0000B4801F01DFA6EE70421084802F002FDEC
:102ED00000230A222146064801F02AFA1121064859
:102EE00002F0F8FC024801F00BFA5CE7C83E002053
:102EF00084630020643F00202C3F0020E43E00203B
:102F0000F43E0020083F00201C3F0020543F0020DA
:102F1000D03E0020E43F002000001D40403F002044
:102F2000783F00200421534802F0D4FC00230A22F9
:102F30002146514801F0FCF91D21504802F0CAFC1D
:102F40002B681021980240F18B804D4802F0C2FCA2
:102F50004C4FAE686B682F4423F0604507214A4808
:102F600002F0B8FC002310222946434801F0E0F9A2
:102F70000121464802F0AEFC0A21454802F0AAFCB5
:102F800000231022310E3C4801F0D2F901214148C2
:102F900002F0A0FC00231022C6F30741364801F0DE
:102FA000C7F901213B4802F095FC00231022C6F32B
:102FB0000721314801F0BCF90121364802F08AFCB2
:102FC0001022F1B200232C4801F0B2F9324B01215A
:102FD00030483B441D6802F07DFC00231022290E7E
:102FE000254801F0A5F901212A4802F073FCC5F338
:102FF000074100231022204801F09AF901212548B9
:1030000002F068FCC5F30721002310221A4801F0E2
:103010008FF901211F4802F05DFC0023E9B2102264
:10302000154801F085F90121184802F053FC1248B7
:1030300001F066F9B7E61121184802F04BFC0E4882
:1030400001F05EF9A4E400242546BEE4144802F031
:1030500041FC0C4FAE686B682F44C3F38A4543E5CF
:103060000F4802F037FC074FAE686B682F44C3F37C
:103070008A4573E7C83E002084630020883F002013
:10308000A83F002080FFE2BFD03F0020644700201F
:10309000D83F00206C3E00208C001D40703E002078
:1030A000BC3F0020F8B50F21314802F013FC314835
:1030B00001F026F93048FFF781FB00222F492E4806
:1030C000FFF720F82E4B19681A4641F0A04119600D
:1030D00013682B4CDD01FBD5274D002126682846BF
:1030E000FFF772FA274828490022D0F800E00F685D
:1030F000C0F800E03A430A60236823F07F032360AE
:10310000236843F00F032360B4002CD41C4B1968D0
:103110001A4621F0805119601368194CD801FBD46C
:1031200001211548FFF750FA236899000BD5174B7A
:103130001A68920607D41A6822F0FF021A601A6809
:1031400042F020021A6042F60403114A0A48EA508B
:10315000FFF708FC0C210F4802F0BCFB0548BDE856
:10316000F84001F0CDB801212846FFF72DFACDE750
:1031700014400020846300204C8B002090D003007A
:1031800000001D402C001D4030001D4028001D4047
:103190005D060000244000201F2910B425D801231B
:1031A0001B488B4003601B4B4FF00064D0790B44ED
:1031B0001B011C601168F8B1107A21F060410028F1
:1031C000596014BF4FF4E0014FF4C001D0685DF8BE
:1031D000044B00BA9860106900BAD860D27A41EA0C
:1031E000024242F040621A607047A1F120040123BC
:1031F0000948A3400360D6E78904147A0748002CE5
:1032000000EA01000CBF00214FF480115860DDE797
:1032100030001D4008D001042C001D400000FC1FA0
:10322000F0B58B7D0546504C87B00E462068002BCC
:1032300067D110F0005040F08580236801464B4B69
:103240000B441B011B68C3F30363082B52D0464A8F
:1032500004E02368C3F30363082B4BD01368481CB6
:10326000424C03F07F03C1B201330C4499424FEA50
:103270000414EED30FCE6C46FF27EE460FC496E83B
:1032800003003B4B84E803008DF81470186810F0BD
:10329000200023D0012007B0F0BDFFF705F8236818
:1032A00003F07F03013383422FD8324B4FF0FF34BA
:1032B0001B68C3F30363082B4FD06F46DFF8B0C021
:1032C000EE460FCE0FC796E8030087E803008DF89F
:1032D0001440DCF8000010F02000DBD141F61E3372
:1032E0005B5B9BB2102BD6D071462846FFF702F8E5
:1032F00007B0F0BD28463246FFF74EFF012007B069
:10330000F0BD10F00050C8D12368184B04460344A8
:103310001B011A681101CBD4134902E01A6812018B
:10332000C6D40A680130114B02F07F02C0B20132EC
:103330000344044690424FEA0313EFD30D4B4FF082
:10334000FF34B5E7FEF7B0FF2368014603F07F03C3
:10335000013383423FF673AF8CE728463246E1B231
:10336000FFF71AFF012096E700001D4008D0010476
:1033700020001D4070001D4001EB410130B4C90028
:1033800000F5045460586318C0002AD56058400FF7
:10339000012829D06058400F022838D06058400FCB
:1033A000052802D0002030BC70476058C0F3C2101E
:1033B000C0B158695C68596910402140884210D0FA
:1033C00001211C680131C4F3C214C9B20134A14205
:1033D000E8D25C6953F8215058691440284084426F
:1033E000EFD1012030BC70476158C1F3C211B9B1AF
:1033F00059688A42F6D01968C4B2C1F3C211601C80
:103400008C42CFD253F820109142F4D1E9E75968A9
:103410008A42C7D3986882428CBF00200120E1E72E
:103420000846DFE70B78632B70B5044615460FD0CE
:1034300000EB830342F204729B580BB12846984775
:1034400042F60403E3584BB12846BDE870401847E4
:1034500042F20473C358002BF0D1F1E770BD00BFF6
:103460002DE9F04F8E468DB006460F466C464FF064
:103470000109354606F11008DFF820A1BEE80F006B
:103480000FC49EE8030084E8030055F8044F6CB1B4
:103490009DF91420D4E9020109FA02F30021184031
:1034A00050EA01035DD1237C002B4DD14545ECD181
:1034B00006F51C531B78002B5ED0B6F816C04FF0F3
:1034C0001A0E386806AC5FFA8CFC7968BA684FF05F
:1034D0000008FB680EFB0C6C25460FC438691822E7
:1034E00079698CF81A81F38ADBB20EFB036383F8E7
:1034F0001B21F38ADBB203C40EFB03670FCDC7F8B1
:103500001C01C7F82011C7F82421C7F8283103CDC2
:10351000C7F82C01C7F83011F28AB38A92B29BB275
:1035200083F480739A4232D0F38A0133C3F30803E1
:10353000F382338B9BB2FF2B03D8338B01339BB2C7
:1035400033830DB0BDE8F08F2368D3F800B0D345C6
:10355000ACD020469DF815304FF0FF326946D84771
:10356000A4E72368D3F800B0D3459CD09DF815306C
:1035700069462046D84796E73B7D0CA930463A4637
:1035800001F8183DFFF74EFF0DB0BDE8F08FB38A8C
:103590000133C3F30803B382C6E700BF8D01000007
:1035A00042F20173C35C002B00F0AC802DE9F04FB8
:1035B0000F4689B00E46054602ACDFF870E20FCF29
:1035C0000FC497E8030084E80300DEF800309B0096
:1035D00054D5954B00244FF0630B1B68C3F3036A6B
:1035E0004FEACA0A0AF1080A0CE01968490F0229D1
:1035F00000F095801968490F052900F0AD8001346D
:1036000054453BD096F914305FFA84FC632B35D0D7
:1036100004EB440805EBC80909F5F053196811F0EB
:10362000604FECD01968490F0129DED11A68F17991
:10363000C2F300429142E2D11A6812F4607FDED0F8
:103640001F464FEA4808002306E03A685FFA89F30C
:10365000C2F3C2129342D2D203F10109029A08EBDB
:10366000090303F5F06355F823309A42EDD102A91E
:1036700028468DF81CB0FFF7F3FEE6E700236B4FFA
:103680008DF80E303C6814F000543CD13B68DFF8F4
:103690009C8108E0D8F80030013403F07F03E4B2E5
:1036A00001339C4238D296F91430A342F2D004EB95
:1036B000440105EBC10202F50453186810F0604F95
:1036C000E8D01868F779C0F3C0608742E2D1186883
:1036D000400F012874D01968490F022900F0948026
:1036E0001B685B0F052BD5D1029A21462846FFF7B0
:1036F00043FE0028CED002A928468DF81C40FFF7D3
:10370000AFFEC7E77047FEF7CFFD3B68044603F006
:103710007F0301339842BAD309B0BDE8F08F1B682C
:10372000F279C3F300439A427FF469AF41F6046330
:10373000029A4B441B689A42FFF461AF41F608635A
:1037400053F809309A423FF65AAF02A928468DF83D
:103750001CB0FFF785FE52E71B6813F4607F3FF44F
:103760004EAF41F614634FEA480801274B440AE084
:1037700009F5F05101370968FFB2C1F3C2110131F7
:103780008F42BFF43CAF08EB07011868029A01F5BD
:10379000F061104055F821E019680EEA01018842F5
:1037A000E6D102A9284601938DF80EC0CDF800C0DD
:1037B0008DF81CB0FFF754FE019BDDF800C0D7E781
:1037C0001A6812F4607F3FF465AF1F464FEA410A62
:1037D000002307E03A685FFA89F3C2F3C21293420A
:1037E000BFF458AF03F10109029A0AEB090303F58C
:1037F000046355F823309A42ECD102A928468DF88B
:103800001C40FFF72DFEE5E742F204130299134432
:103810001B689942FFF43EAF42F208139B5899424D
:103820007FF669AF36E700BF34001D4000001D4041
:103830002DE9F04F00239BB0224C4FF0080CDFF82D
:1038400090E09846204A08340A93054608931846A3
:1038500009930B930C930D938DF82BC0DEF800C0E9
:1038600054F808EC1268E146236848EA0E0811464D
:10387000164AD2F800E040EA03001EF4004FCDE9FA
:10388000020103D113689B0000F19C81DDE9022352
:1038900042F00102002B00F08781B3FA83F2DFF8D7
:1038A0002CA0C2F14002DAF80040D3B214F0005468
:1038B000049340F08F82DAF800300595CDE9006777
:1038C00084E000BF28001D402C001D4000001D406A
:1038D00024001D4001F4001E6868BEF1000F20F0B6
:1038E00060460DBF122000204FF0010C4FF0000C7D
:1038F000C640062A8DF827C0089600F06782059812
:1039000042F61512ADF82410C1F3034102448DF8BC
:1039100034408DF82B10BEF1000F12780CBF4FF021
:1039200080604FF08C608DF835201F2CAA688DF8D0
:103930002F20AA684FEA12228DF82E20AA684FEA9B
:1039400012428DF82D20AA684FEA12628DF82C20C1
:10395000EA688DF83320EA684FEA12228DF83220A7
:10396000EA684FEA12428DF83120EA684FEA1262A3
:103970008DF830208E4A2860126800F203810123FE
:103980008C4A21460598A3401360089AFFF7F4FC7F
:10399000002840F0048108A90598FFF701FE08A857
:1039A000AFF3008008A8AFF3008008A8AFF3008051
:1039B000814B01341B68E4B203F07F0301339C4266
:1039C00080F0AE81049BA34240F2AA8128FA04F35E
:1039D000C4F12002009309FA02F0009DA4F1200333
:1039E000054329FA03F12846084329FA04F1009017
:1039F0000191DDE90001002100F001000143D7D071
:103A0000DDE9025606FA02F225FA04FA31464AEADC
:103A1000020AD9404AEA010A00210AF0010050EAEC
:103A20000102C5D0654D25442D0129680A0E02F01A
:103A30000B0002F00F0202283FF44CAF042A00F002
:103A40000182082AB4D1059E42F61512D5F804E089
:103A5000C1F3034C32448DF834408DF82BC02EF066
:103A60006040127801F4001EADF8241007468DF86E
:103A70003520BEF1000FA96804F6022214BF4FF0F2
:103A8000000E4FF0120E8DF82F103046A96827FA5D
:103A90000EFE14BF01200020090A56F82220CDF89E
:103AA00020E08DF82E10A9688DF82700090C8DF8FC
:103AB0002D10A968090E8DF82C10E9688DF83310C7
:103AC000E968090A8DF83210E968090C8DF831109F
:103AD000E968090E8DF830101AB108A806939047CE
:103AE000069B42F6081205990A4412681AB108A802
:103AF00006939047069B41F61A3205998A1810469C
:103B00001746928892B2002A00F07D8103881A2518
:103B10000EA80DF1500E03F00F030690844605FB2E
:103B200003757646123555F8060F6968AA68EB6882
:103B3000AEE80F00286969693546AEE803000FCD8D
:103B4000ACE80F0095E803008CE803009DF94C30C9
:103B50005A1C00F07E829C427FF42AAF069AE1B2A2
:103B60000598FFF719FB3B88013303F01F033B80E7
:103B7000BB889BB2002B3FF41BAFBB88013B9BB2C1
:103B8000BB8015E701222146059802FA03F30C4A8F
:103B90001360089AFFF7F0FB00283FF4FCAE08A979
:103BA0000598FFF75DFCF6E6B2FA82F2203276E67F
:103BB00008001D4030001D4000001D4008D00104D9
:103BC0002C001D4008F02002002313433FF45EAE9A
:103BD00000F02002002313433FF458AE8E4B42F610
:103BE00015118E4A4FF0630E1B6815F801C0C3F320
:103BF000034003F40011ADF824308DF82B000029A8
:103C000012684FEAD35114BF0020122022F0604204
:103C10008DF826108249C3F3005322FA00F24FF0C8
:103C2000200008920A688DF828308DF82F2018BFE0
:103C300001220B6808BF00221B0A8DF827208DF88F
:103C40002E300B681B0C8DF82D300A68754B120E48
:103C50008DF82C201A688DF833201A68120A8DF816
:103C600032201A68120C8DF8312019688DF834E072
:103C7000090EDFF8CCE18DF835C08DF83010DEF894
:103C80000010DDE902230023206002F0400213430C
:103C900001D040232360DDE90223002302F08002EB
:103CA000134302D0604B80221A6008A92846FFF710
:103CB00077FC08A8AFF3008008A8AFF3008008A83D
:103CC000AFF3008005F5F0531B68D90040F158812F
:103CD000564B002408981B68C3F3036B4FEACB0BC9
:103CE0000BF108039E46CDE9006704EB440C05EB9D
:103CF000CC0202F5F0510B685B0F012B00F01F8125
:103D00000B685B0F022B00F040810B685B0F052BEB
:103D100000F056810134A645E7D1DDE90067B5E53D
:103D2000059D434B434C18682168434A41400A4073
:103D3000002A42D041F6D0432B449A8892B20F2AEF
:103D40003BD89A8892B20F2A58D941F6D047598861
:103D50005E88EA5B01F00F01B6B292B2023182F0E6
:103D6000100243F82100964200F02481598841F660
:103D70009852324E01312A4401F01F0159803768B0
:103D80009388BFB29BB20F2B33D941F6985E51880E
:103D9000568835F80E3001F00F01B6B29BB202EB37
:103DA000410183F01003CF809E4200F0FB805388D6
:103DB0002060013303F01F0353801D4A136803433F
:103DC0001360BFF34F8F1BB0BDE8F08F01228DF859
:103DD000292094E5FEF768FADAF80030044603F08B
:103DE0007F03013398429CD2049B83423FF665AD2A
:103DF00097E7938801339BB29380C6E79A88013294
:103E000092B29A80A1E71F2C00F218810123064A82
:103E1000A3401360CCE500BF80001D4084001D401E
:103E200088001D408C001D4030001D4034001D40A6
:103E300020001D40F48A0020BFFF07001C001D4029
:103E400008001D40059E42F61512D5F804E0C1F3A6
:103E5000034C32448DF834408DF82BC02EF0604076
:103E6000127801F4001EADF8241007468DF83520B5
:103E7000BEF1000FA96804F6022214BF4FF0000E35
:103E80004FF0120E8DF82F103046A96827FA0EFE5B
:103E900014BF01200020090A56F82220CDF820E0A6
:103EA0008DF82E10A9688DF82700090C8DF82D10BB
:103EB000A968090E8DF82C10E9688DF83310E968AF
:103EC000090A8DF83210E968090C8DF83110E9689B
:103ED000090E8DF830101AB108A806939047069B7A
:103EE00042F6081205990A4412681AB108A8069306
:103EF0009047069B41F61A3205998A1810461746D4
:103F0000928892B2002A00F08E8003881A250EA8AB
:103F10000DF1500E03F00F030690844605FB037568
:103F20007646123555F8060F6968AA68EB68AEE860
:103F30000F00286969693546AEE80300FFE50F68A0
:103F400017F4607F3FF4E6AE41F6046A5AF80220A7
:103F5000824213D08A464FEA4C0BDEB2DAF80020D8
:103F6000731CC2F3C2120BEB0301964201F5F06120
:103F7000BFF4D0AE55F821209042EED1DDE90067C4
:103F800008A92846FFF76CFA80E441F604639B58C1
:103F90009842FFF4BFAE41F608639B5898423FF643
:103FA000B9AEEBE735F80E30013303F01F0325F807
:103FB0000E30FCE6EA5B013202F01F02EA53D5E65E
:103FC0000B6813F4607F3FF4A5AE41F6146A41F626
:103FD000046B92449344DAF80030DBF80070DAF8AE
:103FE000002003403A409A42C8D04FEA4C0C0123CB
:103FF000A3460AE0DAF8007055F82640DAF8002007
:1040000000EA070622409642B8D00A680133C2F39C
:10401000C212DBB201320CEB0306934206F5F066E6
:10402000E8D35C4676E61F2C0ED9012202FA03F390
:10403000094A13604FF000632B60B9E4012202FAD1
:1040400003F3054A1360B3E40123044AA340136059
:10405000F0E7069A214683E52C001D4030001D4004
:1040600000F51C531A782DE9F04305468FB00AB9C4
:1040700001221A702B8B9BB2002B54D142F60C13E9
:1040800041F61A3601227149EB58B0462E4403F02E
:104090001F005B09824041F82320B3889BB263B3C1
:1040A00035F808301A240DF1200E02AF03F00F038B
:1040B000F446B94604FB0364123454F8060F6168F1
:1040C000A268E368AEE80F0020696169AEE803000A
:1040D000BCE80F00A9E80F009CE8030089E8030092
:1040E0009DF91C104B1C5FD0594B0B441B011B68E6
:1040F000C3F30363082B00F0878042F60C13012200
:104100005449EB5803F01F005B09824041F823201B
:1041100000212B8BB0889BB280B21B0380B2184366
:104120000FB0BDE8F0832A461A2408AE02AF32F879
:10413000143FB5F814E0DBB20EF1010E04FB0324CA
:10414000CEF3080E04F5817454F8060F6168A26876
:10415000E3680FC62069002361690824A5F814E00C
:104160002A8BBB6092B202937B60FB603B617B61F8
:104170008DF8134003C61AB12B8B013B9BB22B83E6
:1041800008AC3E460DF1380E0FCC0FC694E8030084
:104190003A4686E803009DF81C3028460EF8313D6B
:1041A0007146FFF73FF969E7DFF8AC80D8F80040C7
:1041B00014F000543ED1D8F80030DFF89C8008E0BD
:1041C000D8F80030013403F07F03E4B201339C429D
:1041D00093D21F4B23441B011B68C3F30363082BBB
:1041E000EED13A4621462846FEF7D6FF3388013302
:1041F00003F01F033380B3889BB2002BE0D0B38859
:10420000013B9BB2B380DBE73A46C9B22846FEF7D2
:10421000C3FF35F80830013303F01F0325F80830D9
:10422000B3889BB2002B3FF468AFB388013B9BB2CD
:10423000B38062E7FEF738F8D8F80030044603F0A0
:104240007F0301338342B8D857E700BF80E100E025
:1042500008D0010400E100E000001D40F8B5214C49
:1042600041F61E3641F6D24541F69A57204602F0F5
:10427000D1F920461C4A41F6D4441C4901F0A4FF60
:104280001B4B002241F61A3041F61C3141F6D04E4C
:104290009A8241F6985CDA821A831A5241F69C504F
:1042A0005A5203F51C519A5342F2017623F80E201C
:1042B00042F60C1E5A5342F610151A5342F61414C5
:1042C00023F80C20DA531A520A4F0A700A480B4995
:1042D00043F80E201F609A555A511A550360CB615E
:1042E000F8BD00BFF08A002078630020D1460000AE
:1042F0004C8B0020D42A00204475002064700020DC
:1043000010B5064C82B003680222248801A95B68BC
:10431000ADF80440984702B010BD00BFDC03002098
:10432000036810B514465B689847204610BD00BF6F
:10433000F0B506468BB0002A33D0012A08BF0A2206
:1043400051B3212500E0FDB26F1EB1FBF2F402FB78
:104350001411C8B2092900F1370100F1300088BFFB
:10436000C8B221460AAC98BFC0B22C4404F8240C51
:104370000029E8D133B1013D0AAB2D22EDB22B4427
:1043800003F8242C336801A9C5F1220230462944E0
:104390005B6898470BB0F0BD302221258DF82520B1
:1043A000E8E70368C9B21B6898470BB0F0BD00BFCF
:1043B000002903DB00230A22FFF7BABF49422D235D
:1043C0000A22FFF7B5BF00BF002857D001222DE910
:1043D000F04F85B083462A4C2A4D2B4EDDE90289E9
:1043E00054E8003F2868336844E800210029F7D1E9
:1043F000264FCDE902893A68D31A254A4FF47A7ECE
:10440000019712680127A3FB02234FF47A729846A2
:1044100000238B4208BF42452CBFC246F2460EFB2A
:1044200000AA54E8003F2A68316844E80073002B72
:10443000F7D101980068411A15484FF47A7E006858
:104440000EFB02F2A1FB00014FF47A70CAEB0202EC
:1044500088460021994208BF40452CBF4346734619
:104460001A44724507D3BBF1010B0AF57A7AD8D109
:1044700005B0BDE8F08F01F0B3FAD2E7704700BF96
:1044800060B50020F8B40020F4B40020041000E06F
:10449000F0B400202DE9F003124A0126124D134C0E
:1044A00052E8003F2968206842E80063002BF7D1FA
:1044B0000F4A16680F4F321A4FF000094FF47A78FE
:1044C0003E684FF47A709945A2FB066708BFB8456D
:1044D0003C462CBF3C46044600FB0140BDE8F003CF
:1044E000704700BF60B50020F8B40020F4B400208D
:1044F000041000E0F0B4002008B5FDF76FFDFDF7F3
:10450000D1FD01F06DFAFAE7844641EA000313F0A9
:1045100003036DD1403A41D351F8043B40F8043BCA
:1045200051F8043B40F8043B51F8043B40F8043B8D
:1045300051F8043B40F8043B51F8043B40F8043B7D
:1045400051F8043B40F8043B51F8043B40F8043B6D
:1045500051F8043B40F8043B51F8043B40F8043B5D
:1045600051F8043B40F8043B51F8043B40F8043B4D
:1045700051F8043B40F8043B51F8043B40F8043B3D
:1045800051F8043B40F8043B51F8043B40F8043B2D
:1045900051F8043B40F8043B403ABDD2303211D3CD
:1045A00051F8043B40F8043B51F8043B40F8043B0D
:1045B00051F8043B40F8043B51F8043B40F8043BFD
:1045C000103AEDD20C3205D351F8043B40F8043BCD
:1045D000043AF9D2043208D0D2071CBF11F8013BCB
:1045E00000F8013B01D30B8803806046704700BF91
:1045F000082A13D38B078DD010F003038AD0C3F1A0
:104600000403D21ADB071CBF11F8013B00F8013B81
:1046100080D331F8023B20F8023B7BE7043AD9D340
:10462000013A11F8013B00F8013BF9D20B78037015
:104630004B7843708B78837060467047F0B44E1EA1
:104640000025374600E00135B0FBF2F302FB130012
:1046500000F13704092800F13000E4B298BFC4B279
:10466000184607F8014F002BEDD14A1953704DB190
:10467000013316F8014F1778E81A3770834202F8B1
:104680000149F5DB0846F0BC704700BF72B6EFF396
:104690000583494D6B60EFF30883484C2E4648482C
:1046A0004849494A24680068096812682961AC6071
:1046B000E8606A619A69454CAA61DB69444FEB6125
:1046C00000F0E6F885ED080A01F0F4FC0B234FF04A
:1046D000FF32686219462B604A40202102F0010334
:1046E000013904FB03F383EA5202F7D1BE4202D040
:1046F00056F8041FF0E730498A62BFF34F8F354BFD
:10470000354A19601A60BFF34F8FBFF36F8F334A7A
:104710000225334CD36E334943F440533248D366B9
:104720002560D36923F07F0343F04003D3610B6816
:1047300083423ED82A4A002101202C4E11604FF0BE
:10474000FF33C2F808110C46C2F800611546C2F8E2
:1047500008010746DFF8C0E0254E26482649274ACB
:10476000CEF80030336003600B60136001E000F0AE
:1047700073F9D5F80C211A4B002AF8D00134C5F88A
:104780000C714F2CF3D91E4A02241E484FF00041F1
:10479000C0F840415163D3F80C2132B91A491B4A81
:1047A0000A63D3F80C010028FAD0194B194A1A6091
:1047B000FEE701F0C1F9BDE780FF272028ED00E00A
:1047C0002CED00E034ED00E038ED00E02083B8EDA2
:1047D000A4FF272070EF00E0A0FF272000C00F40BB
:1047E0000040084080630020803DCD0B009F2400E6
:1047F00084E100E088E100E08CE100E090E100E08D
:1048000000900D4000002E4000800F40F100AD0BE5
:104810000CED00E00400FA0580E100E0094A08B56B
:10482000136820B118440849884202D8106018461D
:1048300008BD2DF071FF0C224FF0FF3302601846C7
:1048400008BD00BF20640020000028200020704721
:104850004FF0FF30704700BF4FF4005300204B6013
:10486000704700BF012070474FF0FF30704700BF16
:1048700030BFFDE70078B0FA80F04009704700BF14
:1048800001230370704700BF30BFFDE7FFF7FEBE96
:1048900012490B68114A5B07FBD513681049C3F333
:1048A0000B23104A07EE903A0B6892ED006AB8EEBF
:1048B000E77A07EE903A0C4AF8EE677A0B4BD2EDA6
:1048C000006A77EE677A93ED007AB8EE477A67EE82
:1048D000867A87EEA60A37EE400A704780810D403F
:1048E000E0B40020E8B40020ECB40020E4B40020E0
:1048F000836BF0B41BB1536843F40043536072B64A
:10490000446B5CB31C4B2260D3F8B0410C4215D110
:104910001A4E376804E03468E41BB4F5166F0BD206
:10492000D3F8404144F48044C3F84041D3F8B8512F
:10493000D3F840416404EED50D4003D0426362B623
:10494000F0BC70470C4C8260C560D4F8B03119439C
:10495000C4F8B011426362B6F0BC7047064D826085
:10496000C460D5F8B0311943C5F8B0110263426391
:1049700062B6F0BC704700BF00002E40041000E09B
:1049800070B50646006B90B10246002403E0126841
:104990000134012A0CD0536813F08003F7D032633E
:1049A0002CB1B36B05689847013C2846F9D170BD1E
:1049B00033637363F4E700BFF0B5E1B9214C2249DA
:1049C0000020224B01224FF0011580260A601A4672
:1049D000A1604E60E060C3F8BC51D3F8B0411C4DFB
:1049E00044F001048860C3F8B0412860D2F8B031C7
:1049F000002BFBD1F0BD0904164B144D0126114CC0
:104A000041F0800100221E60596000F5805CE26484
:104A100000F5005EA36400F54057D5F8B01100F52D
:104A200080462A46986041F48031C3F80CC0C3F830
:104A300010E05F619E61C5F8B011D2F8B031002B73
:104A4000FBD1BCE70000002040B5002000002E4054
:104A50006CB4002020B500202DE9F04FB94C83B094
:104A6000D4F8448118F0010FC4F844815ED0D4F822
:104A7000AC31002B55D04FF0011BDFF8EC92B24E59
:104A80002546DA46C4F8AC31B06AF26AD4F840314F
:104A900043F40053C4F84031D4F840319F04F5D5B5
:104AA000D5F8403123F40053C5F84031C5F8B4A11E
:104AB000D4F8B43113F00113FAD181B240F2816716
:104AC000C9F80030B94200F2AD80B1F5D06F80F086
:104AD000DE81B1F5817F00F0608100F2E8808029FD
:104AE00000F04E81822940F0DA8092B202F07F011C
:104AF000072900F2D48089009448954F0844016842
:104B000010063B707B7040F10182CA0301D501237E
:104B10003B7002218E48FFF74FFFD4F8AC31002BD9
:104B2000B0D1884AD2F8BC31002B49D118F0400FDF
:104B300018D0844BD3F8AC111A46C3F8AC11D3F893
:104B4000BC11C3F8BC11D2F8B0417E4B002CFAD195
:104B50004FF0FF32C3F8B421D3F8843100F032FDB6
:104B60007C4B1C6018F0807F03D07B4B1B6803B12B
:104B7000984718F0007F03D0784B1B6803B1984723
:104B800018F0040F08D06F4BD3F8843113F400737E
:104B900045D0734B01221A706A4BD3F84821120694
:104BA0000BD518F0800F08D06E490A782AB1013A67
:104BB000D2B20A70002A00F0428203B0BDE8F08F42
:104BC0006949C2F8BC310868034240F0E281614A99
:104BD00015681D40AAD02F0C0FD05B4E4FF0010975
:104BE00097FAA7F4B4FA84F406EBC41009FA04F4B3
:104BF0004030FFF7C5FEA743F2D1ADB2002D95D0EE
:104C0000514E012795FAA5F4B4FA84F406EBC410CA
:104C100007FA04F4FFF7B4FEA543F3D186E7504A40
:104C20001370B9E742F22107B94234D067D8B1F521
:104C3000086F00F01E81B1F5106F30D1C0F307404E
:104C40004A4A4B4910704B4F4B4A0193C5F8C87103
:104C5000C5F8CC11C5F8D02100F0B6FC474A019B3D
:104C600080210120B26451601060F364C5F8BCB1CA
:104C7000D5F8B011936041F48032C5F8B0213A4ABA
:104C80001360D4F8B031002BFBD1D4F8AC31002B39
:104C90007FF4F8AE45E7110C072900F03B81C4F81A
:104CA000C0B1D4F8AC31002B7FF4ECAE39E740F260
:104CB0000237B94200F0AD80B1F5A06FEFD12F4AB5
:104CC00080210127F364B26417605160C5F8BCB15C
:104CD000D5F8B011936041F48033C5F8B031D4F801
:104CE000B031002BFBD1030C5B0643F08073C5F899
:104CF0005431D4F8AC31002B7FF4C4AE11E742F24A
:104D00002123994279D042F221339942C7D11B4BDA
:104D1000802200210120B36418605A60F164C4F855
:104D2000BCB1D4F8B021996042F48033C4F8B031FA
:104D3000D4F8B031002BFBD1D4F8AC31002B7FF488
:104D4000A1AEEEE600002E4000000020C0012E4083
:104D5000A8B4002070B40020FCB4002000B50020EE
:104D600018B5002019B500206CB4002017B500203C
:104D7000C80002000200CC000200C80040B50020BC
:104D8000B64A0221104613705370FFF715FED4F88F
:104D9000AC31002B7FF476AEC3E692B202F07F0313
:104DA000072B3FF67CAF12F0800F4FEA8303AC4A2B
:104DB0004FF000014FF001001A44136814BF23F4B0
:104DC000803323F0010313608022A64BF164B364A7
:104DD00018605A60C4F8BCB1D4F8B021996042F4AC
:104DE0008033C4F8B031D4F8B031002BFBD1D4F803
:104DF000AC31002B7FF446AE93E692B2002A86D106
:104E0000994BC0F30740994A1968994B1160187083
:104E10007DE792B202F07F03072B3FF640AF12F01E
:104E2000800F4FEA83038E4A4FF000014FF00100DC
:104E30001A44136814BF43F4803343F00103136032
:104E40008022884BF164B36418605A60C4F8BCB126
:104E5000D4F8B021996042F48033C4F8B031D4F86A
:104E6000B031002BFBD1D4F8AC31002B7FF40AAE6B
:104E700057E6804A0121794B127818461A70FFF7DD
:104E80009BFDD4F8AC31002B7FF4FCAD49E67A4BA6
:104E9000596800293FF403AF000C1FFA82FE04E0BA
:104EA0000C33596800293FF4FAAE1F888742F7D1C6
:104EB0005F887745F4D1070A032F00F0BA801B8979
:104EC000120C934228BF1346B0F5007F00F0A28079
:104ED000B0F5E06F00F08B80684F1A4601933846BA
:104EE000FFF712FB019B27F01F021F44BFF34F8FF8
:104EF00063490A6020329742FAD8BFF34F8FBFF35D
:104F00006F8F5E481946FFF757FD06E6CB077FF522
:104F100000AEFCE55B4F4FF0010EF3605A495B4B6E
:104F20003860C3F800E05960B3605949D5F8B00162
:104F30007A6001F5805740EA0E02996001F5005E43
:104F400001F5405001F58041C5F8B021DF60C3F89C
:104F500010E058619961D4F8B031002BFBD1414A7F
:104F6000012048F28001F36410604FF48030B26495
:104F70005160C5F8BCB1D5F8B011936041EA0003A7
:104F8000C5F8B031C9F80000D4F8B031002BFBD11E
:104F9000C3E53C4842F22104002605880E60A54284
:104FA00040687FF414AE81B200297FF410AE384916
:104FB000384C03C90D0C86282060A180A5717FF4B0
:104FC00006AE72B63448017841F004010170D2F89F
:104FD0004811080606D441F080018020C2F844013F
:104FE000C2F8481162B62D4A50211170EFE52C48E5
:104FF0001A46224F90F800E02A492B480193BEF14F
:10500000000F08BF01463846FFF77EFA0722019BD2
:105010007A7068E722481A462349077821480193A5
:10502000002F08BF01461548FFF76EFA134F019B8A
:1050300059E7120C0B78934228BF134648E71649EC
:105040000A7802F0FB020A702AB9D3F8482122F04C
:105050008002C3F848213BF073FD00BFA8B40020D4
:10506000C0012E4040B50020F8B4002074B50020E7
:1050700016B5002017B50020805E0020000020201B
:1050800070EF00E0407000208000070020B5002095
:1050900064B4002078B5002012B5002019B50020B6
:1050A00018B50020BC1E0060081F0060002AA0F197
:1050B00002022DE9F04714BF00274FF00057022AE3
:1050C00001D9BDE8F0874FEAC019DFF840A00D46CE
:1050D00004460AEB090600214022984630462FF08C
:1050E00095F8012047EA05414AF80910C6F83880CA
:1050F000B060B8F1000FE4D0034BA0401C6820431F
:105100001860BDE8F08700BF70B4002000000020E8
:10511000002AA0F102022DE9F04714BF00274FF04A
:105120000057022A01D9BDE8F0874022C501DFF807
:10513000449088461544002104461E4609EB050AA2
:1051400050462FF063F8012247EA084149F805105C
:10515000CAF83860CAF80820002EE4D004F1100024
:10516000034B8240186802431A60BDE8F08700BF15
:1051700070B400200000002012048160C36142F07E
:105180008002F0B44260012701F5805601F5005518
:1051900001F5405401F580420760C6600561446135
:1051A0008261F0BC704700BF831E022B00D970479C
:1051B000064B0A4630B400F11004012503EBC01081
:1051C00005FA04F1403030BCFFF792BB000000202C
:1051D000831E022B00D9704710B4054B01240A46E8
:1051E00004FA00F103EBC0105DF8044BFFF780BB3D
:1051F0000000002040687047124A134BD2F820028A
:1052000020F07F40984210B584B002D800EB8000B7
:1052100040000E4C01A90A22FFF710FA01A9002351
:10522000204611F8012B01333AB10A2B20F8022F46
:10523000F7D11623237004B010BD5B00DBB22370DE
:1052400004B010BD00441F407F969800146A0020EF
:1052500000F0E0BA00F0B2BA00F016BB00F0D0BA2D
:1052600000F06CBB00F042BB0846114600F032BBB8
:10527000084600F019BB00BFF8B514494FF40037D9
:10528000134D034601EB4024124E134A05EB401523
:105290002146176028463288FFF76EFF318824F0D8
:1052A0001F032144BFF34F8F0C4A136020339942F0
:1052B000FBD8BFF34F8FBFF36F8F03202946FFF753
:1052C00087FF074B4FF400321A60F8BD60002020C2
:1052D000C06E002004B500208CE100E05CEF00E02F
:1052E0000CE100E0244A43682DE9F041C3F30E438A
:1052F0001488C569E41A002C38DD2049204A0B784F
:105300001278DBB21F48204E934207D010F803807A
:1053100036F81870C7F50072944212D90133002292
:105320001A4F082B26F8154027F81520184E94BF61
:10533000DAB213460A703268C55414443460BDE8CA
:10534000F081144B07EB48202246274403EB45210C
:105350001844FFF7D9F80E4A284626F81870136843
:105360001C441460BDE8F041FFF786BF2846BDE845
:10537000F041FFF781BF00BF04B5002010B5002049
:1053800011B50020D4B40020B4B40020C4B400206F
:10539000B0B40020600020201E4B1A785AB902F0E9
:1053A000FF031D4A127832B12DE9F0411B4D2A88C6
:1053B00012B9BDE8F0817047194EC2F50068194F67
:1053C00031784246184C07EB411704EBC1243846AC
:1053D0002146FFF7D1FE08EB040224F01F01BFF3C2
:1053E0004F8F124B196020318A42FBD8BFF34F8F89
:1053F000BFF36F8F04203946FFF7D6FE3378084A93
:105400000133DBB2032B88BF0023137000232B80F2
:10541000BDE8F08115B5002017B5002006B50020C5
:1054200014B50020C06F00206010202070EF00E055
:105430002DE9F04F85B002900091002900F0AB807B
:105440000023564DDFF87481DFF860A1544FDFF878
:1054500070B101930122534B2A701C78524AB8F85C
:10546000003002EB441923BB1E461C464846FFF79A
:10547000C1FE10F080007ED0BFF34F8F00229AF85B
:1054800000304A492A7004B93E68002B5AD13B6863
:105490009B1B782B79D89BF80030002B52D000F062
:1054A0009FFA0124B8F800302C70002BDED03D4A62
:1054B00014781A46C3F50060E402009E3C4920447B
:1054C0009642084442D30C440299FFF71DF800238A
:1054D00021464FF400624846FFF74EFE24F01F03BA
:1054E00004F50064BFF34F8F324A136020339C42AF
:1054F000FAD8BFF34F8FBFF36F8F04204946FFF7F1
:1055000053FE284B274A1B78009801332A49DBB207
:10551000032B88BF002313700022B8F80030A8F8CE
:105520000020C01A00900198184401900298184475
:105530000290C1F88420BFF34F8F00232B70009B93
:10554000002B87D1019805B0BDE8F08F009C039334
:10555000019B2246029923440193FEF7D5FF039B4A
:105560004FF04041144A00201B1B0090A8F8003067
:10557000C2F88410DFE74FF400630A4A8AF800009B
:1055800014781A46A8F8003096E7012301980B70AA
:1055900005B0BDE8F08F0098D5E700BF15B5002035
:1055A000F8B4002014B50020C06F002013B500200F
:1055B0006010202070EF00E000002E4006B50020B3
:1055C00017B50020704700BF314B2DE9F0411B7823
:1055D000304F002B54D04FF40073DFF8EC803B8049
:1055E000A8F80030002180222B480D462B4E2EF0CB
:1055F0000DFE2B4C2B4B29464FF480722A48257008
:105600002C461D802EF002FE35602B4675602A4622
:10561000B560F5602549264E2648DFF8B0E00D70EC
:1056200010210570022035607560B560F560CEF818
:105630000050FFF76DFDB8F800102A461E4B0320FE
:10564000FFF734FD2B46398801220420FFF760FD67
:1056500020460134FFF710FE082CF9D1174B4A22DF
:1056600017480021174C0460C3F88410C3F8802049
:10567000D3F8482142F08072C3F84821BDE8F08198
:105680004023DFF844803B80A8F80030AAE700BF41
:1056900018B5002008B50020C06F0020B4B4002069
:1056A00014B5002006B50020C06E002010B5002003
:1056B000C4B4002011B500208533000000002E4046
:1056C000FCB400203934000004B50020B0B4002040
:1056D000314B4FF400322DE9F04F1A6083B02F4B5D
:1056E00089461C78002953D02D4BE4B21B789C428C
:1056F00050D082460027DFF8C0B00134294BC7EBF9
:1057000009085046092C0193274B28BF00241D5D32
:10571000244B33F815E0254B0EEB452133F815608B
:10572000234BCEEB06061944B0453246374419D216
:105730000EEB452142461944FEF7E6FE019BDBF8DD
:105740000010484633F81520C8EB01019044CBF80F
:10575000001023F81580174B4FF400321A6003B085
:10576000BDE8F08FFEF7D0FEDBF80020E3B228465C
:10577000921BB244CBF80020084A1370FFF77CFD5F
:10578000B94503D9064B1B789C42B6D13846E2E7AF
:105790000846E0E70020DEE78CE100E011B50020DC
:1057A00010B50020C4B40020D4B40020B4B400204C
:1057B000600020200CE100E0B0B400200B4B0C4A4C
:1057C0001B781278DBB293420DD0013309480A4AA4
:1057D000092B0A4928BF0023C35C31F8131002EBE0
:1057E0004323585C70474FF0FF30704711B50020DD
:1057F00010B50020D4B4002060002020C4B40020E4
:10580000034B10B51C680CB900F0EAF8204610BD37
:10581000B0B400202DE9F84F154E164D34782B7892
:10582000E4B29C4221D0DFF85490DFF854B0DFF8A6
:105830005480114F0134082C5FFA84FA01D90024F6
:10584000A24619F80410DBF8002038F81130084699
:1058500037F811105B1AD31ACBF80030FFF70CFDA4
:1058600086F800A02B789C42E4D1BDE8F88F00BFF9
:1058700011B5002010B50020C4B40020D4B400201D
:10588000B0B40020B4B4002000B583B001210DF104
:105890000700FFF71DFF20B19DF8070003B05DF87A
:1058A00004FB4FF0FF30F9E7094B00B583B01B78DC
:1058B0008DF8070023B903F0FF0003B05DF804FB87
:1058C00001210DF10700FFF7B3FD03B05DF804FB04
:1058D00017B50020044B1B7803F0FF020BB1FFF754
:1058E000A7BD1046704700BF17B500202DE9F04155
:1058F0000024DFF8448001230D4D27460D4E88F823
:105900000030337828462035A34204F1010405D045
:10591000FFF770FC030658BF07F50067042CF0D1B1
:10592000BFF34F8F0023384688F80030BDE8F08180
:10593000C06F002014B5002015B500202DE9F843F4
:10594000204B1B7813B1204D2A880AB9BDE8F88393
:10595000DFF88880C2F500691C4E4FF0010E98F800
:1059600000104A461A4C002306EB4116194F04EB6F
:10597000C124304687F800E02146FFF7FDFB09EB24
:10598000040224F01F01BFF34F8F134B1960203125
:105990008A42FBD8BFF34F8FBFF36F8F042031468D
:1059A000FFF702FC98F800300C4A0133DBB2032BFE
:1059B00088BF0023137000232B80BFF34F8F3B70F1
:1059C000BDE8F88317B5002006B50020C06F0020A1
:1059D0006010202015B5002070EF00E014B5002005
:1059E0002DE9F843324E337893B1324F3A787AB991
:1059F0000122D9073A7037D49A0719D400225B07DD
:105A00003A7005D52C4B1A6812B1EFF305820AB132
:105A1000BDE8F883EFF3108072B61A681AB1274C0C
:105A2000217800292FD00028F2D162B6BDE8F88392
:105A3000DFF8948098F80020002ADFD00024DFF8F7
:105A40008C9005E0013498F80030E4B2A34213D9F9
:105A500059F824502B6828461B6998470028F1D034
:105A60006B699B689847EDE7FFF7CAFED0B9144B06
:105A70001B781BB93378BFE73378BFE7337803F07F
:105A8000FE033370B8E70126556926701D6065B1C5
:105A9000A96100B962B6002593681046557798470A
:105AA0002570B5E700F01EFBE1E7064B1D60F0E74F
:105AB0002B6A00200CB50020BC8300200AB5002012
:105AC0005E1F0060C88300200BB50020CC8300203F
:105AD00070B5EFF3108172B60C4C23688BB10C4E8D
:105AE00000255A6922607AB1956101B962B65D7785
:105AF00018469B689847EFF3108172B62368002B15
:105B0000EFD101B962B670BD3260EEE7C483002008
:105B1000C0830020FFF7DCBF044A054B1168054A2B
:105B20001960136801331360704700BF041000E070
:105B3000F4B40020F8B40020964A974B90422DE927
:105B4000F043964CD3F814E09969E6681CD9944B5D
:105B5000984240F21581934B40F22765924F0344DF
:105B6000924C1A0AA7FB0232D30903EB830303EB1F
:105B7000830202F2E243AB4228BF2B46A3F54873EF
:105B8000A4FB0335ED0804E0894DA84294BF062527
:105B90000E25814A06F01F07D2F88030AF4243F04D
:105BA000C003C2F880300AD27C4B26F01F061A468A
:105BB0002E43DE601368002BFCDA06F01F071EF090
:105BC000007331D17B4C7C4AD4F810C014460CEAE7
:105BD0000202A2420ABF4FF0C0534FF4805200228B
:105BE0008EEA030414F0605F08D02EF0605E03F0CC
:105BF0006053694C43EA0E0EC4F814E081EA0203D4
:105C000013F4405F08D0644B21F4405111431A460D
:105C10009961936C1C07FCD44EF0007E5E4AC2F87A
:105C200014E0936C9906FCD40121644C0A4601FBF4
:105C300002F300FB03F3A34209D8072A00F2958080
:105C4000013201FB02F300FB03F3A342F5D95C48E8
:105C50005C4C1844A4FB00031B0D6C2B00F28B80E2
:105C6000352B00F28F80DFF8888136235648DFF825
:105C700044C1564CDCF80090B0FBF2F009EA040491
:105C80004445B0FBF1F00BD043F400534FF480587F
:105C90006446CCF80080CCF800302368002BFCDA96
:105CA000DFF8F4C0013ADCF8103003F00703934248
:105CB00007D002F007026446CCF81020A36CDB0387
:105CC000FCD4013989028EEA010313F4E05F0CD0A1
:105CD000314B2EF4E05E01F4E0511A4641EA0E0E1B
:105CE000C3F814E0936C9907FCD4394B3949034449
:105CF000DB09A1FB0331090B042928BF04214B1E3A
:105D00001B028EEA030212F4407F07D02EF4407E7D
:105D100003F44073204A43EA0E0353611E4B5C694F
:105D20001A4624F000745C61936C9B06FCD42A4BE9
:105D30004FF0FF32294CBD42A3FB00E320604FEA45
:105D40009343274CB2FBF3F3B0FBF1F1254A2160FA
:105D5000136008D2114B26F01F061A462E43DE6050
:105D60001368002BFCDABDE8F08304293FF66FAF1F
:105D7000013101225BE7DFF87C806C231A4876E76B
:105D8000122506E71948DFF8708000FB03F043EAAC
:105D900008086CE700A4781F00C00F40000008400E
:105DA0000046C32300BA3CDC23B24C001F85EB51F4
:105DB00000366E0100800D4040300080FFB19F260C
:105DC000808D5B00819F5E1600B29F267F30018030
:105DD0007FD1F0089F10E50083DE1B438063002025
:105DE0007C630020F0B4002000643F4D001BB7002E
:105DF000362000806C20008000200080A4484FF0F6
:105E00000F0CA44B826F42F47F02F0B5826700252D
:105E1000D0F880204FF470469F4C4FF4604E2946D6
:105E20004FF4806714432A46C0F88040A3F88C6181
:105E300048F2B826A3F88EC1A3F89051B3F88801B0
:105E400080B240F0F000A3F8880101EB4100914BD3
:105E50000131002540011C4604290344A3F804E055
:105E6000DF805A841A865A805A81DE815A82DA8209
:105E70005A83DA83E9D1B4F888014FF00F0C874BCD
:105E80004FF4704680B229464FF460472A4640EAF4
:105E90000C004FF4806EA4F88801B4F8880180B239
:105EA00040F47060A4F88801A3F88C6148F2B82629
:105EB000A3F88EC1A3F89051B3F8880180B240F0E6
:105EC000F000A3F8880101EB4100744B013100257B
:105ED00040011C46042903449F80A3F806E05A842D
:105EE0001A865A805A81DE815A82DA825A83DA838C
:105EF000E9D1B4F888014FF00F0C694B4FF47046AC
:105F000080B229464FF460472A4640EA0C004FF41D
:105F1000806EA4F88801B4F8880180B240F4706003
:105F2000A4F88801A3F88C6148F2B826A3F88EC1C2
:105F3000A3F89051B3F8880180B240F0F000A3F8C4
:105F4000880101EB4100564B0131002540011C4600
:105F5000042903449F80A3F806E05A841A865A80D5
:105F60005A81DE815A82DA825A83DA83E9D1B4F81F
:105F700088014FF00F0C4B4B4FF4704780B229460D
:105F80004FF460462A4640EA0C004FF4806EA4F8B5
:105F90008801B4F8880180B240F47060A4F88801E8
:105FA000A3F88C7148F2B827A3F88EC1A3F89051DA
:105FB000B3F8880180B240F0F000A3F8880101EB4B
:105FC0004100384B013140011C46042903449E80A6
:105FD000A3F806E05A841A865A805A81DF815A82D1
:105FE000DA825A83DA83EAD1B4F888310F270022A3
:105FF00041F201069BB245F6C05E114643F226050A
:106000003B43A4F88831B4F888319BB243F4706301
:10601000A4F888315001244B01320344042A9981A9
:106020005981DF819E82A3F806E0198019829D8143
:10603000F0D100220F2741F2010645F6C055114666
:1060400043F226045001194B01320344042A99817A
:106050005981DF819E82DD80198019829C81F1D176
:1060600000220F2741F2010645F6C055114643F2C2
:10607000260450010E4B01320344042A99815981B0
:10608000DF819E82DD80198019829C81F1D1F0BD73
:1060900000C00F4000C03D40000003FC00003E4037
:1060A00000403E4000803E4000C01D4000001E40B9
:1060B00000401E400A4B30B4586A1C46996A626A16
:1060C000A36A994208BF9042104619460CBF0125A9
:1060D0000025002DF3D0D90B30BC41EA4240704777
:1060E00000400D40704700BF08B503684268BBB16F
:1060F0007AB1104BA3FB0213DB0803EB4303B2EBB3
:10610000830303D0D21A4260F02A02D90123184631
:1061100008BD2CF001FB1C2200230260184608BDBC
:10612000044BA3FB0213DB0803EB4303B2EB830333
:10613000E8D1E9E7ABAAAAAA70B5044600283AD08C
:1061400019B1B2FA82F56D09FDB1206808B1626833
:1061500032B92CF0E1FA162300220360104670BD1C
:106160001849A1FB0231C90801EB4101B2EB8101E1
:10617000EFD1A3680BB12EF049F800230122236070
:1061800010466360A360E36070BD1E46049B80E818
:106190000600C360FFF7A8FF02460028DED016B94C
:1061A0000122104670BD94E80500A66029462EF035
:1061B0002DF80122D2E72CF0AFFA16232246036015
:1061C000CCE700BFABAAAAAA0B46014618462CF0A2
:1061D0009DBA00BF2DE9F04FDFF86C83CA4DD8F8A7
:1061E0000020DFF86893C94BC5F80090002483B005
:1061F000D2F808A06C60012205F11C00AC60EC60D4
:106200002C616C61AC61C24F1A7015F023FCD8F898
:106210000030C7F800905B68BE4AC5F820A007F1BF
:106220001C004FF0FF3A7C60BC60FC603C617C610C
:10623000BC6101932A600092C5F824A015F00AFC05
:10624000019BDFF80CB3B44E009A3B62D8F80030E3
:106250003A60C7F824A0B14FC6F80090DB687460BC
:10626000ABF1040906F11C00B460F46034617461A0
:10627000B4610192009315F0EDFB019A009BC6F802
:1062800024A0584607F1140A3260336200F002FA83
:1062900029465846C9F8744089F8784089F8794009
:1062A000C9F87C40C9F88040C9F88440C9F88840E2
:1062B000C9F804A04BF8047C10F0B8FF984D2846AC
:1062C00000F0E8F9974B45F8083CA5F1080403F104
:1062D000140200232846A2608D49A36784F87C300D
:1062E00084F87D30C4F88030C4F88430C4F8883035
:1062F000C4F88C30636010F099FF8B4D2E1F284638
:1063000000F0C8F9002328468349C6F804A0736743
:1063100086F8783086F87930F367C6F88030C6F8AA
:106320008430C6F8883045F8047C10F07FFFDFF831
:1063300024B2ABF10405584600F0ACF900235846EE
:106340007549C5F804A06B6785F8783085F8793011
:10635000EB67C5F88030C5F88430C5F888304BF855
:10636000047C10F063FFD8F8003032696F4DC4F838
:106370007890C6F87490D3F808906D4B6D4FDFF8A5
:10638000D8B1DFF8D8A1002442F40052326185E888
:10639000180005F11C00AC60EC602C616C61AC6114
:1063A00015F058FBD8F80030C5F820905968604BBC
:1063B000BC6087E8180007F11C00FC603C617C6150
:1063C000BC614FF0FF395C4E0091C5F800B0C5F8D4
:1063D000249015F03FFBD8F80020554BD268009967
:1063E000DFF87C81B46086E8180006F11C00F460D8
:1063F00034617461B4613962C7F800B0C7F82490A1
:106400000092AAF1040715F025FB009A3262C6F843
:1064100000B0C6F82490504608F1140600F03AF98E
:10642000294650467C67BC6787F87C40C7F88040A7
:10643000C7F88440C7F88840C7F88C407E604AF8A7
:10644000048C10F04BFF3D4C204600F023F93C4BF0
:1064500044F8083CA4F1080503F11402002335496F
:10646000AA602046AB67EB6785F88030C5F88430BA
:10647000C5F88830C5F88C30C5F890306B6010F0E6
:106480002DFFDFF8E090A9F10404484600F002F97E
:1064900000234846284966606367A36784F87C3018
:1064A000C4F88030C4F88430C4F88830C4F88C3024
:1064B00049F8048C10F012FFDFF8ACA0AAF104092F
:1064C000504600F0E7F8002350461B49C9F8046025
:1064D000C9F87430C9F8783089F87C30C9F8803050
:1064E000C9F88430C9F88830C9F88C304AF8048C6F
:1064F00010F0F4FE134923690A68AF67013243F4D0
:106500000053002032E000BF3C8400202A6A0020B3
:10651000EC830020F42B0020148400206C33002036
:1065200080860020443300200C870020B4840020A3
:1065300074350020648400208C840020B4880020FE
:10654000D434002044860020A06900203435002087
:106550002488002098870020342C0020648A0020A2
:10656000FC34002044890020D489002067670A6039
:10657000236103B0BDE8F08F1C4BC9F804301C4800
:1065800000F0DEF813F01AFA1A4BC9F804301A4872
:1065900000F0D6F813F012FA164B6360174800F0BB
:1065A000CFF813F00BFA134BAB60154800F0C8F8A6
:1065B00013F004FA0F4B7B60124800F0C1F813F09F
:1065C000FDF90A4B6B60104800F0BAF813F0F6F9C9
:1065D000064B73600D4800F0B3F813F0EFF9034B6E
:1065E000A3600B4800F0ACF813F0E8F9983A0020EB
:1065F00024880020A83A0020D48900204489002063
:10660000B4880020648A0020988700200C8700202E
:1066100080860020054A1368591C10B50446116095
:106620000BB9FFF7D7FD204610BD00BF4486002000
:10663000114A1368591E022B10B50446116001D08F
:10664000204610BD0D4810F0FBFE0D4810F0F8FE7E
:106650000C4810F0F5FE0C4810F038FF0B4810F015
:1066600035FF0B4810F032FF204610BD12F0A2F8A3
:1066700012F0E6F8E4E700BF4486002020880020FE
:106680000887002094870020608A0020408900202D
:10669000D08900200F4B10B50446036000234360EF
:1066A0008360C360036143618361C361036200F17E
:1066B000240104F16C022C3040F8083C40F8043C02
:1066C00008309042F8D10823A166636615F0C2F93C
:1066D000204610BD7C39002070B5846954B1054650
:1066E0000E466368A2682946304698472468002C05
:1066F000F7D170BD70BD12F05DF812F0A1F8F5E7AA
:10670000013101D013F05AF911F080FF38B5054678
:10671000806988B1C3685A1EC2606BB9046812F000
:1067200047F84CB1E3685A1EE2602BB92046046872
:1067300012F03EF8002CF5D10023AB6138BD00BF4C
:106740000C4B10B5002104460360FFF7C5FF20463F
:10675000FFF7DCFFA06E04F12403984204D008B1D7
:1067600011F0C8FF0023A36604F16C0013F0D0FC05
:10677000204610BD7C39002010B50446FFF7E0FF2D
:10678000204612F015F8204610BD00BF084670479D
:1067900010B5064A064B026000220446426040F8EB
:1067A000083FFFF7CDFF204610BD00BF4433002057
:1067B000983A00200368084953F80C2C70B58418E7
:1067C0002346064E86500025656043F8081F18468C
:1067D000FFF7B6FF204670BD983A002044330020F2
:1067E00010B5074A074B026000220446426040F899
:1067F000083FFFF7A5FF204611F0DAFF204610BD45
:1068000044330020983A002003680A4953F80C2CBE
:1068100070B584182346084E86500025656043F8FD
:10682000081F1846FFF78CFF204611F0C1FF2046D5
:1068300070BD00BF983A00204433002010B5064ACE
:10684000064B026000220446426040F8083FFFF712
:1068500077FF204610BD00BFD4340020A83A0020A6
:106860000368084953F80C2C70B584182346064E6B
:1068700086500025656043F8081F1846FFF760FF43
:10688000204670BDA83A0020D434002010B5074A35
:10689000074B026000220446426040F8083FFFF7C1
:1068A0004FFF204611F084FF204610BDD434002055
:1068B000A83A002003680A4953F80C2C70B58418D4
:1068C0002346084E86500025656043F8081F184689
:1068D000FFF736FF204611F06BFF204670BD00BF6A
:1068E000A83A0020D434002010B5044B044640F8E8
:1068F0001C3B13F00DFC204610BD00BF34350020BA
:1069000010B5054B044640F81C3B13F001FC204633
:1069100011F04EFF204610BD3435002010B5044B59
:10692000044640F81C3B13F0F3FB204610BD00BFAB
:106930007435002010B5054B044640F81C3B13F09D
:10694000E7FB204611F034FF204610BD74350020CF
:1069500010B50446006A2CF0A7FE606210BD00BFAF
:1069600010B50446006A2CF09FFE216ABDE8104075
:1069700033F0F0B84A1C10B5044607D00846216A27
:1069800033F0E8F84FF0FF33636210BD406A431CF8
:10699000F5D1F7E7006A2BF0C1BF00BF006A2BF00A
:1069A000BDBF00BFF8B5069B04464FF0FF36002080
:1069B0004FF0FF370D46C4E900671146A060E06064
:1069C0007BB1012B0CBF01220222286A2CF098FA1D
:1069D00028B9286A2CF014FCC117C4E9000120462C
:1069E000F8BD1A46F1E700BFF8B5069B04464FF024
:1069F000FF3600204FF0FF370D46C4E9006711460F
:106A0000A060E0607BB1012B0CBF01220222286A4A
:106A10002CF076FA28B9286A2CF0F2FBC117C4E9E9
:106A200000012046F8BD1A46F1E700BF10B5044644
:106A3000006A2CF057FE606210BD00BF2DE9F041E6
:106A400006467AB1884617460D1F002404E001343B
:106A5000A74245F8040F0CD0306A2CF043FE431CCB
:106A6000F5D134B94FF0FF33002473622046BDE8FE
:106A7000F08104F18043013B204658F823307362D3
:106A8000BDE8F08110B50446006A2CF02BFE216AA7
:106A9000BDE8104033F0A0B84A1C10B5044607D03A
:106AA0000846216A33F098F84FF0FF33636210BD57
:106AB000406A431CF5D14FF0FF33636210BD00BF45
:106AC000F8B516467AB107460D46002402E00134B7
:106AD000A64206D0396A55F8040B2DF031FC01307E
:106AE000F5D12046F8BD1446FBE700BF10B40C46B4
:106AF000036A012120465DF8044B2CF0C5BD00BFA0
:106B000038B5036A0C460546084601212CF0B2F858
:106B10000028CABF24184FF0FF3314F8013C6B6201
:106B200038BD00BF08B54B1C06D00B46016A18469D
:106B3000BDE808402DF004BC006A2BF0EFFE0030E9
:106B400018BF0120404208BD08B54B1C06D00B46BB
:106B5000016A1846BDE808402DF0CCBB006A2BF056
:106B6000DDFE003018BF0120404208BD82B0F0B504
:106B700083B008AC84E80C000B68144F1E69099BB5
:106B8000BE4204461CD10D4696464FF0FF36002209
:106B90004FF0FF37C0E900678260C2607146286A23
:106BA0002CF0AEF928B1204603B0BDE8F04002B0A9
:106BB0007047286A2CF024FBC117C4E90001F2E7F2
:106BC0000C9F00258DE8A000B047ECE7454A000087
:106BD00082B0F0B583B008AC84E80C000B68144FA9
:106BE0001E69099BBE4204461CD10D4696464FF0D5
:106BF000FF3600224FF0FF37C0E900678260C260B5
:106C00007146286A2CF07CF928B1204603B0BDE813
:106C1000F04002B07047286A2CF0F2FAC117C4E9BC
:106C20000001F2E70C9F00258DE8A000B047ECE7DB
:106C3000894A0000836810B4002B03F1FF3484609C
